{
  "contractName": "NFT721",
  "abi": [
    {
      "inputs": [
        {
          "internalType": "string",
          "name": "name",
          "type": "string"
        },
        {
          "internalType": "string",
          "name": "symbol",
          "type": "string"
        },
        {
          "internalType": "address",
          "name": "newOwner",
          "type": "address"
        },
        {
          "internalType": "string",
          "name": "contractURI",
          "type": "string"
        },
        {
          "internalType": "string",
          "name": "tokenURIPrefix",
          "type": "string"
        }
      ],
      "stateMutability": "nonpayable",
      "type": "constructor"
    },
    {
      "anonymous": false,
      "inputs": [
        {
          "indexed": true,
          "internalType": "address",
          "name": "owner",
          "type": "address"
        },
        {
          "indexed": true,
          "internalType": "address",
          "name": "approved",
          "type": "address"
        },
        {
          "indexed": true,
          "internalType": "uint256",
          "name": "tokenId",
          "type": "uint256"
        }
      ],
      "name": "Approval",
      "type": "event"
    },
    {
      "anonymous": false,
      "inputs": [
        {
          "indexed": true,
          "internalType": "address",
          "name": "owner",
          "type": "address"
        },
        {
          "indexed": true,
          "internalType": "address",
          "name": "operator",
          "type": "address"
        },
        {
          "indexed": false,
          "internalType": "bool",
          "name": "approved",
          "type": "bool"
        }
      ],
      "name": "ApprovalForAll",
      "type": "event"
    },
    {
      "anonymous": false,
      "inputs": [
        {
          "indexed": true,
          "internalType": "address",
          "name": "previousOwner",
          "type": "address"
        },
        {
          "indexed": true,
          "internalType": "address",
          "name": "newOwner",
          "type": "address"
        }
      ],
      "name": "OwnershipTransferred",
      "type": "event"
    },
    {
      "anonymous": false,
      "inputs": [
        {
          "indexed": false,
          "internalType": "uint256",
          "name": "tokenId",
          "type": "uint256"
        },
        {
          "indexed": false,
          "internalType": "address[]",
          "name": "recipients",
          "type": "address[]"
        },
        {
          "indexed": false,
          "internalType": "uint256[]",
          "name": "bps",
          "type": "uint256[]"
        }
      ],
      "name": "SecondarySaleFees",
      "type": "event"
    },
    {
      "anonymous": false,
      "inputs": [
        {
          "indexed": true,
          "internalType": "address",
          "name": "from",
          "type": "address"
        },
        {
          "indexed": true,
          "internalType": "address",
          "name": "to",
          "type": "address"
        },
        {
          "indexed": true,
          "internalType": "uint256",
          "name": "tokenId",
          "type": "uint256"
        }
      ],
      "name": "Transfer",
      "type": "event"
    },
    {
      "inputs": [
        {
          "internalType": "address",
          "name": "to",
          "type": "address"
        },
        {
          "internalType": "uint256",
          "name": "tokenId",
          "type": "uint256"
        }
      ],
      "name": "approve",
      "outputs": [],
      "stateMutability": "nonpayable",
      "type": "function"
    },
    {
      "inputs": [
        {
          "internalType": "address",
          "name": "owner",
          "type": "address"
        }
      ],
      "name": "balanceOf",
      "outputs": [
        {
          "internalType": "uint256",
          "name": "",
          "type": "uint256"
        }
      ],
      "stateMutability": "view",
      "type": "function",
      "constant": true
    },
    {
      "inputs": [
        {
          "internalType": "uint256",
          "name": "tokenId",
          "type": "uint256"
        }
      ],
      "name": "burn",
      "outputs": [],
      "stateMutability": "nonpayable",
      "type": "function"
    },
    {
      "inputs": [],
      "name": "contractURI",
      "outputs": [
        {
          "internalType": "string",
          "name": "",
          "type": "string"
        }
      ],
      "stateMutability": "view",
      "type": "function",
      "constant": true
    },
    {
      "inputs": [
        {
          "internalType": "uint256",
          "name": "",
          "type": "uint256"
        },
        {
          "internalType": "uint256",
          "name": "",
          "type": "uint256"
        }
      ],
      "name": "fees",
      "outputs": [
        {
          "internalType": "address payable",
          "name": "recipient",
          "type": "address"
        },
        {
          "internalType": "uint256",
          "name": "value",
          "type": "uint256"
        }
      ],
      "stateMutability": "view",
      "type": "function",
      "constant": true
    },
    {
      "inputs": [
        {
          "internalType": "uint256",
          "name": "tokenId",
          "type": "uint256"
        }
      ],
      "name": "getApproved",
      "outputs": [
        {
          "internalType": "address",
          "name": "",
          "type": "address"
        }
      ],
      "stateMutability": "view",
      "type": "function",
      "constant": true
    },
    {
      "inputs": [
        {
          "internalType": "uint256",
          "name": "id",
          "type": "uint256"
        }
      ],
      "name": "getFeeBps",
      "outputs": [
        {
          "internalType": "uint256[]",
          "name": "",
          "type": "uint256[]"
        }
      ],
      "stateMutability": "view",
      "type": "function",
      "constant": true
    },
    {
      "inputs": [
        {
          "internalType": "uint256",
          "name": "id",
          "type": "uint256"
        }
      ],
      "name": "getFeeRecipients",
      "outputs": [
        {
          "internalType": "address payable[]",
          "name": "",
          "type": "address[]"
        }
      ],
      "stateMutability": "view",
      "type": "function",
      "constant": true
    },
    {
      "inputs": [
        {
          "internalType": "address",
          "name": "owner",
          "type": "address"
        },
        {
          "internalType": "address",
          "name": "operator",
          "type": "address"
        }
      ],
      "name": "isApprovedForAll",
      "outputs": [
        {
          "internalType": "bool",
          "name": "",
          "type": "bool"
        }
      ],
      "stateMutability": "view",
      "type": "function",
      "constant": true
    },
    {
      "inputs": [],
      "name": "name",
      "outputs": [
        {
          "internalType": "string",
          "name": "",
          "type": "string"
        }
      ],
      "stateMutability": "view",
      "type": "function",
      "constant": true
    },
    {
      "inputs": [],
      "name": "owner",
      "outputs": [
        {
          "internalType": "address",
          "name": "",
          "type": "address"
        }
      ],
      "stateMutability": "view",
      "type": "function",
      "constant": true
    },
    {
      "inputs": [
        {
          "internalType": "uint256",
          "name": "tokenId",
          "type": "uint256"
        }
      ],
      "name": "ownerOf",
      "outputs": [
        {
          "internalType": "address",
          "name": "",
          "type": "address"
        }
      ],
      "stateMutability": "view",
      "type": "function",
      "constant": true
    },
    {
      "inputs": [],
      "name": "renounceOwnership",
      "outputs": [],
      "stateMutability": "nonpayable",
      "type": "function"
    },
    {
      "inputs": [
        {
          "internalType": "address",
          "name": "from",
          "type": "address"
        },
        {
          "internalType": "address",
          "name": "to",
          "type": "address"
        },
        {
          "internalType": "uint256",
          "name": "tokenId",
          "type": "uint256"
        }
      ],
      "name": "safeTransferFrom",
      "outputs": [],
      "stateMutability": "nonpayable",
      "type": "function"
    },
    {
      "inputs": [
        {
          "internalType": "address",
          "name": "from",
          "type": "address"
        },
        {
          "internalType": "address",
          "name": "to",
          "type": "address"
        },
        {
          "internalType": "uint256",
          "name": "tokenId",
          "type": "uint256"
        },
        {
          "internalType": "bytes",
          "name": "_data",
          "type": "bytes"
        }
      ],
      "name": "safeTransferFrom",
      "outputs": [],
      "stateMutability": "nonpayable",
      "type": "function"
    },
    {
      "inputs": [
        {
          "internalType": "address",
          "name": "to",
          "type": "address"
        },
        {
          "internalType": "bool",
          "name": "approved",
          "type": "bool"
        }
      ],
      "name": "setApprovalForAll",
      "outputs": [],
      "stateMutability": "nonpayable",
      "type": "function"
    },
    {
      "inputs": [
        {
          "internalType": "bytes4",
          "name": "interfaceId",
          "type": "bytes4"
        }
      ],
      "name": "supportsInterface",
      "outputs": [
        {
          "internalType": "bool",
          "name": "",
          "type": "bool"
        }
      ],
      "stateMutability": "view",
      "type": "function",
      "constant": true
    },
    {
      "inputs": [],
      "name": "symbol",
      "outputs": [
        {
          "internalType": "string",
          "name": "",
          "type": "string"
        }
      ],
      "stateMutability": "view",
      "type": "function",
      "constant": true
    },
    {
      "inputs": [
        {
          "internalType": "uint256",
          "name": "index",
          "type": "uint256"
        }
      ],
      "name": "tokenByIndex",
      "outputs": [
        {
          "internalType": "uint256",
          "name": "",
          "type": "uint256"
        }
      ],
      "stateMutability": "view",
      "type": "function",
      "constant": true
    },
    {
      "inputs": [
        {
          "internalType": "address",
          "name": "owner",
          "type": "address"
        },
        {
          "internalType": "uint256",
          "name": "index",
          "type": "uint256"
        }
      ],
      "name": "tokenOfOwnerByIndex",
      "outputs": [
        {
          "internalType": "uint256",
          "name": "",
          "type": "uint256"
        }
      ],
      "stateMutability": "view",
      "type": "function",
      "constant": true
    },
    {
      "inputs": [
        {
          "internalType": "uint256",
          "name": "tokenId",
          "type": "uint256"
        }
      ],
      "name": "tokenURI",
      "outputs": [
        {
          "internalType": "string",
          "name": "",
          "type": "string"
        }
      ],
      "stateMutability": "view",
      "type": "function",
      "constant": true
    },
    {
      "inputs": [],
      "name": "tokenURIPrefix",
      "outputs": [
        {
          "internalType": "string",
          "name": "",
          "type": "string"
        }
      ],
      "stateMutability": "view",
      "type": "function",
      "constant": true
    },
    {
      "inputs": [],
      "name": "totalSupply",
      "outputs": [
        {
          "internalType": "uint256",
          "name": "",
          "type": "uint256"
        }
      ],
      "stateMutability": "view",
      "type": "function",
      "constant": true
    },
    {
      "inputs": [
        {
          "internalType": "address",
          "name": "from",
          "type": "address"
        },
        {
          "internalType": "address",
          "name": "to",
          "type": "address"
        },
        {
          "internalType": "uint256",
          "name": "tokenId",
          "type": "uint256"
        }
      ],
      "name": "transferFrom",
      "outputs": [],
      "stateMutability": "nonpayable",
      "type": "function"
    },
    {
      "inputs": [
        {
          "internalType": "address",
          "name": "newOwner",
          "type": "address"
        }
      ],
      "name": "transferOwnership",
      "outputs": [],
      "stateMutability": "nonpayable",
      "type": "function"
    },
    {
      "inputs": [
        {
          "internalType": "uint256",
          "name": "tokenId",
          "type": "uint256"
        },
        {
          "internalType": "uint8",
          "name": "v",
          "type": "uint8"
        },
        {
          "internalType": "bytes32",
          "name": "r",
          "type": "bytes32"
        },
        {
          "internalType": "bytes32",
          "name": "s",
          "type": "bytes32"
        },
        {
          "components": [
            {
              "internalType": "address payable",
              "name": "recipient",
              "type": "address"
            },
            {
              "internalType": "uint256",
              "name": "value",
              "type": "uint256"
            }
          ],
          "internalType": "struct ERC721Base.Fee[]",
          "name": "_fees",
          "type": "tuple[]"
        },
        {
          "internalType": "string",
          "name": "tokenURI",
          "type": "string"
        }
      ],
      "name": "mint",
      "outputs": [],
      "stateMutability": "nonpayable",
      "type": "function"
    },
    {
      "inputs": [
        {
          "internalType": "uint256",
          "name": "tokenId",
          "type": "uint256"
        },
        {
          "components": [
            {
              "internalType": "address payable",
              "name": "recipient",
              "type": "address"
            },
            {
              "internalType": "uint256",
              "name": "value",
              "type": "uint256"
            }
          ],
          "internalType": "struct ERC721Base.Fee[]",
          "name": "_fees",
          "type": "tuple[]"
        },
        {
          "internalType": "string",
          "name": "tokenURI",
          "type": "string"
        }
      ],
      "name": "mintNovrs",
      "outputs": [],
      "stateMutability": "nonpayable",
      "type": "function"
    },
    {
      "inputs": [
        {
          "internalType": "string",
          "name": "tokenURIPrefix",
          "type": "string"
        }
      ],
      "name": "setTokenURIPrefix",
      "outputs": [],
      "stateMutability": "nonpayable",
      "type": "function"
    },
    {
      "inputs": [
        {
          "internalType": "string",
          "name": "contractURI",
          "type": "string"
        }
      ],
      "name": "setContractURI",
      "outputs": [],
      "stateMutability": "nonpayable",
      "type": "function"
    }
  ],
  "bytecode": "0x60806040523480156200001157600080fd5b5060405162003235380380620032358339810160408190526200003491620003fe565b84848383808260006200004662000191565b600080546001600160a01b0319166001600160a01b03831690811782556040519293509160008051602062003215833981519152908290a350620000916301ffc9a760e01b62000195565b620000a3632dde656160e21b62000195565b8051620000b8906002906020840190620002bb565b50620000cb63e8a3d48560e01b62000195565b508051620000e1906003906020840190620002bb565b50620000f690506380ac58cd60e01b62000195565b6200010863780e9d6360e01b62000195565b83516200011d90600d906020870190620002bb565b5082516200013390600e906020860190620002bb565b5062000146635b5e139f60e01b62000195565b505050506200017b7fe37243f27916e395706434720b54132b80ef5cc8c56f39b0df6485e8dfb697cf6200019560201b60201c565b6200018683620001f3565b505050505062000585565b3390565b6001600160e01b03198082161415620001cb5760405162461bcd60e51b8152600401620001c29062000519565b60405180910390fd5b6001600160e01b0319166000908152600160208190526040909120805460ff19169091179055565b620001fd62000191565b6001600160a01b031662000210620002ac565b6001600160a01b031614620002395760405162461bcd60e51b8152600401620001c29062000550565b6001600160a01b038116620002625760405162461bcd60e51b8152600401620001c290620004d3565b600080546040516001600160a01b03808516939216916000805160206200321583398151915291a3600080546001600160a01b0319166001600160a01b0392909216919091179055565b6000546001600160a01b031690565b828054600181600116156101000203166002900490600052602060002090601f016020900481019282601f10620002fe57805160ff19168380011785556200032e565b828001600101855582156200032e579182015b828111156200032e57825182559160200191906001019062000311565b506200033c92915062000340565b5090565b5b808211156200033c576000815560010162000341565b600082601f83011262000368578081fd5b81516001600160401b03808211156200037f578283fd5b6040516020601f8401601f1916820181018381118382101715620003a1578586fd5b80604052508194508382528681858801011115620003be57600080fd5b600092505b83831015620003e25785830181015182840182015291820191620003c3565b83831115620003f45760008185840101525b5050505092915050565b600080600080600060a0868803121562000416578081fd5b85516001600160401b03808211156200042d578283fd5b6200043b89838a0162000357565b9650602088015191508082111562000451578283fd5b6200045f89838a0162000357565b604089015190965091506001600160a01b03821682146200047e578283fd5b60608801519194508082111562000493578283fd5b620004a189838a0162000357565b93506080880151915080821115620004b7578283fd5b50620004c68882890162000357565b9150509295509295909350565b60208082526026908201527f4f776e61626c653a206e6577206f776e657220697320746865207a65726f206160408201526564647265737360d01b606082015260800190565b6020808252601c908201527f4552433136353a20696e76616c696420696e7465726661636520696400000000604082015260600190565b6020808252818101527f4f776e61626c653a2063616c6c6572206973206e6f7420746865206f776e6572604082015260600190565b612c8080620005956000396000f3fe608060405234801561001057600080fd5b50600436106101cf5760003560e01c8063672a940011610104578063a22cb465116100a2578063c87b56dd11610071578063c87b56dd146103d4578063e8a3d485146103e7578063e985e9c5146103ef578063f2fde38b14610402576101cf565b8063a22cb46514610386578063b88d4fde14610399578063b9c4d9fb146103ac578063c0ac9983146103cc576101cf565b80638da5cb5b116100de5780638da5cb5b14610350578063938e3d7b1461035857806395d89b411461036b57806399e0dd7c14610373576101cf565b8063672a94001461032257806370a0823114610335578063715018a614610348576101cf565b80632f745c59116101715780634f6ccce71161014b5780634f6ccce7146102c857806358853357146102db5780636308f1cd146102ee5780636352211e1461030f576101cf565b80632f745c591461028f57806342842e0e146102a257806342966c68146102b5576101cf565b8063095ea7b3116101ad578063095ea7b3146102325780630ebd4c7f1461024757806318160ddd1461026757806323b872dd1461027c576101cf565b806301ffc9a7146101d457806306fdde03146101fd578063081812fc14610212575b600080fd5b6101e76101e236600461203c565b610415565b6040516101f49190612370565b60405180910390f35b610205610434565b6040516101f49190612399565b6102256102203660046120a7565b6104c2565b6040516101f491906122b3565b610245610240366004612011565b61050e565b005b61025a6102553660046120a7565b6105f3565b6040516101f4919061235d565b61026f6106fd565b6040516101f49190612b5a565b61024561028a366004611f36565b610703565b61026f61029d366004612011565b610740565b6102456102b0366004611f36565b6107a0565b6102456102c33660046120a7565b6107bb565b61026f6102d63660046120a7565b6107ee565b6102456102e93660046120bf565b610835565b6103016102fc366004612129565b61084a565b6040516101f4929190612303565b61022561031d3660046120a7565b61088d565b61024561033036600461214a565b6108c8565b61026f610343366004611edb565b6109b9565b610245610a02565b610225610a8b565b610245610366366004612074565b610a9a565b610205610ae2565b610245610381366004612074565b610b3d565b610245610394366004611fe0565b610b85565b6102456103a7366004611f76565b610c53565b6103bf6103ba3660046120a7565b610c92565b6040516101f4919061231c565b610205610da1565b6102056103e23660046120a7565b610dfc565b610205610e2c565b6101e76103fd366004611efe565b610e84565b610245610410366004611edb565b610eb2565b6001600160e01b03191660009081526001602052604090205460ff1690565b600d805460408051602060026001851615610100026000190190941693909304601f810184900484028201840190925281815292918301828280156104ba5780601f1061048f576101008083540402835291602001916104ba565b820191906000526020600020905b81548152906001019060200180831161049d57829003601f168201915b505050505081565b60006104cd82610f72565b6104f25760405162461bcd60e51b81526004016104e990612802565b60405180910390fd5b506000908152600660205260409020546001600160a01b031690565b60006105198261088d565b9050806001600160a01b0316836001600160a01b0316141561054d5760405162461bcd60e51b81526004016104e990612989565b806001600160a01b031661055f610f8f565b6001600160a01b0316148061057b575061057b816103fd610f8f565b6105975760405162461bcd60e51b81526004016104e99061267f565b60008281526006602052604080822080546001600160a01b0319166001600160a01b0387811691821790925591518593918516917f8c5be1e5ebec7d5bd14f71427d1e84f3dd0314c0f7b2291e5b200ac8c7c3b92591a4505050565b6000818152600f602090815260408083208054825181850281018501909352808352606094859484015b82821015610665576000848152602090819020604080518082019091526002850290910180546001600160a01b0316825260019081015482840152908352909201910161061d565b5050505090506060815167ffffffffffffffff8111801561068557600080fd5b506040519080825280602002602001820160405280156106af578160200160208202803683370190505b50905060005b82518110156106f5578281815181106106ca57fe5b6020026020010151602001518282815181106106e257fe5b60209081029190910101526001016106b5565b509392505050565b600b5490565b61071461070e610f8f565b82610f93565b6107305760405162461bcd60e51b81526004016104e9906129e6565b61073b838383611018565b505050565b600061074b836109b9565b82106107695760405162461bcd60e51b81526004016104e9906123ac565b6001600160a01b038316600090815260096020526040902080548390811061078d57fe5b9060005260206000200154905092915050565b61073b83838360405180602001604052806000815250610c53565b6107c661070e610f8f565b6107e25760405162461bcd60e51b81526004016104e990612afd565b6107eb81611037565b50565b60006107f86106fd565b82106108165760405162461bcd60e51b81526004016104e990612a43565b600b828154811061082357fe5b90600052602060002001549050919050565b610840338484611049565b61073b838261129c565b600f602052816000526040600020818154811061086357fe5b6000918252602090912060029091020180546001909101546001600160a01b039091169250905082565b6000818152600560205260408120546001600160a01b0316806108c25760405162461bcd60e51b81526004016104e990612739565b92915050565b600130876040516020016108dd929190612260565b604051602081830303815290604052805190602001206040516020016109039190612282565b6040516020818303038152906040528051906020012086868660405160008152602001604052604051610939949392919061237b565b6020604051602081039080840390855afa15801561095b573d6000803e3d6000fd5b505050602060405103516001600160a01b0316610976610a8b565b6001600160a01b03161461099c5760405162461bcd60e51b81526004016104e990612648565b6109a7338784611049565b6109b1868261129c565b505050505050565b60006001600160a01b0382166109e15760405162461bcd60e51b81526004016104e9906126dc565b6001600160a01b03821660009081526007602052604090206108c2906112cf565b610a0a610f8f565b6001600160a01b0316610a1b610a8b565b6001600160a01b031614610a415760405162461bcd60e51b81526004016104e99061289a565b600080546040516001600160a01b03909116907f8be0079c531659141344cd1fd0a4f28419497f9722a3daafe3b4186f6b6457e0908390a3600080546001600160a01b0319169055565b6000546001600160a01b031690565b610aa2610f8f565b6001600160a01b0316610ab3610a8b565b6001600160a01b031614610ad95760405162461bcd60e51b81526004016104e99061289a565b6107eb816112d3565b600e805460408051602060026001851615610100026000190190941693909304601f810184900484028201840190925281815292918301828280156104ba5780601f1061048f576101008083540402835291602001916104ba565b610b45610f8f565b6001600160a01b0316610b56610a8b565b6001600160a01b031614610b7c5760405162461bcd60e51b81526004016104e99061289a565b6107eb816112e6565b610b8d610f8f565b6001600160a01b0316826001600160a01b03161415610bbe5760405162461bcd60e51b81526004016104e99061258e565b8060086000610bcb610f8f565b6001600160a01b03908116825260208083019390935260409182016000908120918716808252919093529120805460ff191692151592909217909155610c0f610f8f565b6001600160a01b03167f17307eab39ab6107e8899845ad3d59bd9653f200f220920489ca2b5937696c3183604051610c479190612370565b60405180910390a35050565b610c64610c5e610f8f565b83610f93565b610c805760405162461bcd60e51b81526004016104e9906129e6565b610c8c848484846112f9565b50505050565b6000818152600f602090815260408083208054825181850281018501909352808352606094859484015b82821015610d04576000848152602090819020604080518082019091526002850290910180546001600160a01b03168252600190810154828401529083529092019101610cbc565b5050505090506060815167ffffffffffffffff81118015610d2457600080fd5b50604051908082528060200260200182016040528015610d4e578160200160208202803683370190505b50905060005b82518110156106f557828181518110610d6957fe5b602002602001015160000151828281518110610d8157fe5b6001600160a01b0390921660209283029190910190910152600101610d54565b6003805460408051602060026001851615610100026000190190941693909304601f810184900484028201840190925281815292918301828280156104ba5780601f1061048f576101008083540402835291602001916104ba565b6060610e0782610f72565b610e235760405162461bcd60e51b81526004016104e99061292c565b6108c28261132c565b6002805460408051602060018416156101000260001901909316849004601f810184900484028201840190925281815292918301828280156104ba5780601f1061048f576101008083540402835291602001916104ba565b6001600160a01b03918216600090815260086020908152604080832093909416825291909152205460ff1690565b610eba610f8f565b6001600160a01b0316610ecb610a8b565b6001600160a01b031614610ef15760405162461bcd60e51b81526004016104e99061289a565b6001600160a01b038116610f175760405162461bcd60e51b81526004016104e990612466565b600080546040516001600160a01b03808516939216917f8be0079c531659141344cd1fd0a4f28419497f9722a3daafe3b4186f6b6457e091a3600080546001600160a01b0319166001600160a01b0392909216919091179055565b6000908152600560205260409020546001600160a01b0316151590565b3390565b6000610f9e82610f72565b610fba5760405162461bcd60e51b81526004016104e9906125fc565b6000610fc58361088d565b9050806001600160a01b0316846001600160a01b031614806110005750836001600160a01b0316610ff5846104c2565b6001600160a01b0316145b8061101057506110108185610e84565b949350505050565b611023838383611467565b61102d838261156d565b61073b8282611669565b6107eb6110438261088d565b826116a7565b61105383836116ba565b6060815167ffffffffffffffff8111801561106d57600080fd5b50604051908082528060200260200182016040528015611097578160200160208202803683370190505b5090506060825167ffffffffffffffff811180156110b457600080fd5b506040519080825280602002602001820160405280156110de578160200160208202803683370190505b50905060005b83518110156112515760006001600160a01b031684828151811061110457fe5b6020026020010151600001516001600160a01b031614156111375760405162461bcd60e51b81526004016104e990612796565b83818151811061114357fe5b6020026020010151602001516000141561116f5760405162461bcd60e51b81526004016104e9906124fa565b6000858152600f60205260409020845185908390811061118b57fe5b602090810291909101810151825460018082018555600094855293839020825160029092020180546001600160a01b0319166001600160a01b0390921691909117815591015191015583518490829081106111e257fe5b6020026020010151600001518382815181106111fa57fe5b60200260200101906001600160a01b031690816001600160a01b03168152505083818151811061122657fe5b60200260200101516020015182828151811061123e57fe5b60209081029190910101526001016110e4565b50825115611295577f99aba1d63749cfd5ad1afda7c4663840924d54eb5f005bbbeadedc6ec13674b284838360405161128c93929190612b63565b60405180910390a15b5050505050565b6112a582610f72565b6112c15760405162461bcd60e51b81526004016104e99061284e565b6112cb82826116d7565b5050565b5490565b80516112cb906002906020840190611cdb565b80516112cb906003906020840190611cdb565b611304848484611018565b611310848484846116f6565b610c8c5760405162461bcd60e51b81526004016104e990612409565b6000818152600460209081526040918290208054835160026001831615610100026000190190921691909104601f81018490048402820184019094528381526060936108c2939192918301828280156113c65780601f1061139b576101008083540402835291602001916113c6565b820191906000526020600020905b8154815290600101906020018083116113a957829003601f168201915b505060038054604080516020601f60026000196101006001881615020190951694909404938401819004810282018101909252828152955091935091508301828280156114545780601f1061142957610100808354040283529160200191611454565b820191906000526020600020905b81548152906001019060200180831161143757829003601f168201915b505050505061184590919063ffffffff16565b826001600160a01b031661147a8261088d565b6001600160a01b0316146114a05760405162461bcd60e51b81526004016104e9906128cf565b6001600160a01b0382166114c65760405162461bcd60e51b81526004016104e990612531565b6114cf8161197d565b6001600160a01b03831660009081526007602052604090206114f0906119b8565b6001600160a01b0382166000908152600760205260409020611511906119c9565b60008181526005602052604080822080546001600160a01b0319166001600160a01b0386811691821790925591518493918716917fddf252ad1be2c89b69c2b068fc378daa952ba7f163c4a11628f55a4df523b3ef91a4505050565b6001600160a01b0382166000908152600960205260408120546115919060016119d2565b6000838152600a602052604090205490915080821461162c576001600160a01b03841660009081526009602052604081208054849081106115ce57fe5b906000526020600020015490508060096000876001600160a01b03166001600160a01b03168152602001908152602001600020838154811061160c57fe5b6000918252602080832090910192909255918252600a9052604090208190555b6001600160a01b038416600090815260096020526040902080548061164d57fe5b6001900381819060005260206000200160009055905550505050565b6001600160a01b0390911660009081526009602081815260408084208054868652600a84529185208290559282526001810183559183529091200155565b6116b182826119fa565b6112cb81611a26565b6116c48282611a64565b6116ce8282611669565b6112cb81611b2b565b6000828152600460209081526040909120825161073b92840190611cdb565b600061170a846001600160a01b0316611b6f565b61171657506001611010565b600060606001600160a01b038616630a85bd0160e11b611734610f8f565b89888860405160240161174a94939291906122c7565b60408051601f198184030181529181526020820180517bffffffffffffffffffffffffffffffffffffffffffffffffffffffff166001600160e01b031990941693909317909252905161179d9190612244565b6000604051808303816000865af19150503d80600081146117da576040519150601f19603f3d011682016040523d82523d6000602084013e6117df565b606091505b509150915081611811578051156117f95780518082602001fd5b60405162461bcd60e51b81526004016104e990612409565b6000818060200190518101906118279190612058565b6001600160e01b031916630a85bd0160e11b14935061101092505050565b805182516060918491849184910167ffffffffffffffff8111801561186957600080fd5b506040519080825280601f01601f191660200182016040528015611894576020820181803683370190505b5090506000805b8451811015611904578481815181106118b057fe5b602001015160f81c60f81b8383806001019450815181106118cd57fe5b60200101907effffffffffffffffffffffffffffffffffffffffffffffffffffffffffffff1916908160001a90535060010161189b565b5060005b83518110156119715783818151811061191d57fe5b602001015160f81c60f81b83838060010194508151811061193a57fe5b60200101907effffffffffffffffffffffffffffffffffffffffffffffffffffffffffffff1916908160001a905350600101611908565b50909695505050505050565b6000818152600660205260409020546001600160a01b0316156107eb57600090815260066020526040902080546001600160a01b0319169055565b80546119c59060016119d2565b9055565b80546001019055565b6000828211156119f45760405162461bcd60e51b81526004016104e9906125c5565b50900390565b611a048282611b75565b611a0e828261156d565b6000818152600a60205260408120556112cb81611c2d565b60008181526004602052604090205460026000196101006001841615020190911604156107eb5760008181526004602052604081206107eb91611d59565b6001600160a01b038216611a8a5760405162461bcd60e51b81526004016104e9906127cd565b611a9381610f72565b15611ab05760405162461bcd60e51b81526004016104e9906124c3565b600081815260056020908152604080832080546001600160a01b0319166001600160a01b038716908117909155835260079091529020611aef906119c9565b60405181906001600160a01b038416906000907fddf252ad1be2c89b69c2b068fc378daa952ba7f163c4a11628f55a4df523b3ef908290a45050565b600b80546000838152600c60205260408120829055600182018355919091527f0175b7a638427703f0dbe7bb9bbf987a2551717b34e79f33b5b1008d1fa01db90155565b3b151590565b816001600160a01b0316611b888261088d565b6001600160a01b031614611bae5760405162461bcd60e51b81526004016104e990612aa0565b611bb78161197d565b6001600160a01b0382166000908152600760205260409020611bd8906119b8565b60008181526005602052604080822080546001600160a01b0319169055518291906001600160a01b038516907fddf252ad1be2c89b69c2b068fc378daa952ba7f163c4a11628f55a4df523b3ef908390a45050565b600b54600090611c3e9060016119d2565b6000838152600c6020526040812054600b8054939450909284908110611c6057fe5b9060005260206000200154905080600b8381548110611c7b57fe5b6000918252602080832090910192909255828152600c90915260409020829055600b805480611ca657fe5b600190038181906000526020600020016000905590556000600c60008681526020019081526020016000208190555050505050565b828054600181600116156101000203166002900490600052602060002090601f016020900481019282601f10611d1c57805160ff1916838001178555611d49565b82800160010185558215611d49579182015b82811115611d49578251825591602001919060010190611d2e565b50611d55929150611d99565b5090565b50805460018160011615610100020316600290046000825580601f10611d7f57506107eb565b601f0160209004906000526020600020908101906107eb91905b5b80821115611d555760008155600101611d9a565b600082601f830112611dbe578081fd5b813567ffffffffffffffff811115611dd4578182fd5b6020611de38182840201612bcc565b8281529250808301848201604080850287018401881015611e0357600080fd5b60005b85811015611e2a57611e188984611e9f565b84529284019291810191600101611e06565b50505050505092915050565b600082601f830112611e46578081fd5b813567ffffffffffffffff811115611e5c578182fd5b611e6f601f8201601f1916602001612bcc565b9150808252836020828501011115611e8657600080fd5b8060208401602084013760009082016020015292915050565b600060408284031215611eb0578081fd5b611eba6040612bcc565b90508135611ec781612c1f565b808252506020820135602082015292915050565b600060208284031215611eec578081fd5b8135611ef781612c1f565b9392505050565b60008060408385031215611f10578081fd5b8235611f1b81612c1f565b91506020830135611f2b81612c1f565b809150509250929050565b600080600060608486031215611f4a578081fd5b8335611f5581612c1f565b92506020840135611f6581612c1f565b929592945050506040919091013590565b60008060008060808587031215611f8b578081fd5b8435611f9681612c1f565b93506020850135611fa681612c1f565b925060408501359150606085013567ffffffffffffffff811115611fc8578182fd5b611fd487828801611e36565b91505092959194509250565b60008060408385031215611ff2578182fd5b8235611ffd81612c1f565b915060208301358015158114611f2b578182fd5b60008060408385031215612023578182fd5b823561202e81612c1f565b946020939093013593505050565b60006020828403121561204d578081fd5b8135611ef781612c34565b600060208284031215612069578081fd5b8151611ef781612c34565b600060208284031215612085578081fd5b813567ffffffffffffffff81111561209b578182fd5b61101084828501611e36565b6000602082840312156120b8578081fd5b5035919050565b6000806000606084860312156120d3578283fd5b83359250602084013567ffffffffffffffff808211156120f1578384fd5b6120fd87838801611dae565b93506040860135915080821115612112578283fd5b5061211f86828701611e36565b9150509250925092565b6000806040838503121561213b578182fd5b50508035926020909101359150565b60008060008060008060c08789031215612162578384fd5b86359550602087013560ff81168114612179578485fd5b94506040870135935060608701359250608087013567ffffffffffffffff808211156121a3578384fd5b6121af8a838b01611dae565b935060a08901359150808211156121c4578283fd5b506121d189828a01611e36565b9150509295509295509295565b6000815180845260208085019450808401835b8381101561220d578151875295820195908201906001016121f1565b509495945050505050565b60008151808452612230816020860160208601612bf3565b601f01601f19169290920160200192915050565b60008251612256818460208701612bf3565b9190910192915050565b60609290921b6bffffffffffffffffffffffff19168252601482015260340190565b7f19457468657265756d205369676e6564204d6573736167653a0a3332000000008152601c810191909152603c0190565b6001600160a01b0391909116815260200190565b60006001600160a01b038087168352808616602084015250836040830152608060608301526122f96080830184612218565b9695505050505050565b6001600160a01b03929092168252602082015260400190565b6020808252825182820181905260009190848201906040850190845b818110156119715783516001600160a01b031683529284019291840191600101612338565b600060208252611ef760208301846121de565b901515815260200190565b93845260ff9290921660208401526040830152606082015260800190565b600060208252611ef76020830184612218565b6020808252602b908201527f455243373231456e756d657261626c653a206f776e657220696e646578206f7560408201527f74206f6620626f756e6473000000000000000000000000000000000000000000606082015260800190565b60208082526032908201527f4552433732313a207472616e7366657220746f206e6f6e20455243373231526560408201527f63656976657220696d706c656d656e7465720000000000000000000000000000606082015260800190565b60208082526026908201527f4f776e61626c653a206e6577206f776e657220697320746865207a65726f206160408201527f6464726573730000000000000000000000000000000000000000000000000000606082015260800190565b6020808252601c908201527f4552433732313a20746f6b656e20616c7265616479206d696e74656400000000604082015260600190565b60208082526016908201527f4665652076616c75652020626520706f73697469766500000000000000000000604082015260600190565b60208082526024908201527f4552433732313a207472616e7366657220746f20746865207a65726f2061646460408201527f7265737300000000000000000000000000000000000000000000000000000000606082015260800190565b60208082526019908201527f4552433732313a20617070726f766520746f2063616c6c657200000000000000604082015260600190565b6020808252601e908201527f536166654d6174683a207375627472616374696f6e206f766572666c6f770000604082015260600190565b6020808252602c908201527f4552433732313a206f70657261746f7220717565727920666f72206e6f6e657860408201526b34b9ba32b73a103a37b5b2b760a11b606082015260800190565b60208082526019908201527f6f776e65722073686f756c64207369676e20746f6b656e496400000000000000604082015260600190565b60208082526038908201527f4552433732313a20617070726f76652063616c6c6572206973206e6f74206f7760408201527f6e6572206e6f7220617070726f76656420666f7220616c6c0000000000000000606082015260800190565b6020808252602a908201527f4552433732313a2062616c616e636520717565727920666f7220746865207a6560408201527f726f206164647265737300000000000000000000000000000000000000000000606082015260800190565b60208082526029908201527f4552433732313a206f776e657220717565727920666f72206e6f6e657869737460408201527f656e7420746f6b656e0000000000000000000000000000000000000000000000606082015260800190565b60208082526015908201527f526563697069656e74202062652070726573656e740000000000000000000000604082015260600190565b6020808252818101527f4552433732313a206d696e7420746f20746865207a65726f2061646472657373604082015260600190565b6020808252602c908201527f4552433732313a20617070726f76656420717565727920666f72206e6f6e657860408201526b34b9ba32b73a103a37b5b2b760a11b606082015260800190565b6020808252602c908201527f4552433732314d657461646174613a2055524920736574206f66206e6f6e657860408201526b34b9ba32b73a103a37b5b2b760a11b606082015260800190565b6020808252818101527f4f776e61626c653a2063616c6c6572206973206e6f7420746865206f776e6572604082015260600190565b60208082526029908201527f4552433732313a207472616e73666572206f6620746f6b656e2074686174206960408201527f73206e6f74206f776e0000000000000000000000000000000000000000000000606082015260800190565b6020808252602f908201527f4552433732314d657461646174613a2055524920717565727920666f72206e6f60408201527f6e6578697374656e7420746f6b656e0000000000000000000000000000000000606082015260800190565b60208082526021908201527f4552433732313a20617070726f76616c20746f2063757272656e74206f776e6560408201527f7200000000000000000000000000000000000000000000000000000000000000606082015260800190565b60208082526031908201527f4552433732313a207472616e736665722063616c6c6572206973206e6f74206f60408201527f776e6572206e6f7220617070726f766564000000000000000000000000000000606082015260800190565b6020808252602c908201527f455243373231456e756d657261626c653a20676c6f62616c20696e646578206f60408201527f7574206f6620626f756e64730000000000000000000000000000000000000000606082015260800190565b60208082526025908201527f4552433732313a206275726e206f6620746f6b656e2074686174206973206e6f60408201527f74206f776e000000000000000000000000000000000000000000000000000000606082015260800190565b60208082526030908201527f4552433732314275726e61626c653a2063616c6c6572206973206e6f74206f7760408201527f6e6572206e6f7220617070726f76656400000000000000000000000000000000606082015260800190565b90815260200190565b60006060820185835260206060818501528186518084526080860191508288019350845b81811015612bac5784516001600160a01b031683529383019391830191600101612b87565b50508481036040860152612bc081876121de565b98975050505050505050565b60405181810167ffffffffffffffff81118282101715612beb57600080fd5b604052919050565b60005b83811015612c0e578181015183820152602001612bf6565b83811115610c8c5750506000910152565b6001600160a01b03811681146107eb57600080fd5b6001600160e01b0319811681146107eb57600080fdfea2646970667358221220ff208eccb08510a5aab0be027cf743eb852eeff5b4ec3b0ef429074d0170a0ff64736f6c634300060c00338be0079c531659141344cd1fd0a4f28419497f9722a3daafe3b4186f6b6457e0",
  "immutableReferences": {},
  "source": "// SPDX-License-Identifier: MIT\npragma solidity 0.6.12;\npragma experimental ABIEncoderV2;\n\nimport \"../lib/interface/IERC721.sol\";\nimport \"../lib/contracts/ERC721Base.sol\";\nimport \"@openzeppelin/contracts/access/Ownable.sol\";\n\n/**\n * @title NFT721\n * @dev anyone can mint token.\n */\ncontract NFT721 is Ownable, IERC721, ERC721Base {\n\n    constructor (string memory name, string memory symbol, address newOwner, string memory contractURI, string memory tokenURIPrefix) public ERC721Base(name, symbol, contractURI, tokenURIPrefix) {\n        _registerInterface(bytes4(keccak256('MINT_WITH_ADDRESS')));\n        transferOwnership(newOwner);\n    }\n\n\n\n    function mint(uint256 tokenId, uint8 v, bytes32 r, bytes32 s, Fee[] memory _fees, string memory tokenURI) public {\n        require(owner() == ecrecover(keccak256(abi.encodePacked(\"\\x19Ethereum Signed Message:\\n32\", keccak256(abi.encodePacked(this, tokenId)))), v, r, s), \"owner should sign tokenId\");\n        _mint(msg.sender, tokenId, _fees);\n        _setTokenURI(tokenId, tokenURI);\n    }\n\n    function mintNovrs(uint256 tokenId, Fee[] memory _fees, string memory tokenURI) public {\n        _mint(msg.sender, tokenId, _fees);\n        _setTokenURI(tokenId, tokenURI);\n    }\n\n\n    function setTokenURIPrefix(string memory tokenURIPrefix) public onlyOwner {\n        _setTokenURIPrefix(tokenURIPrefix);\n    }\n\n    function setContractURI(string memory contractURI) public onlyOwner {\n        _setContractURI(contractURI);\n    }\n}\n",
  "sourcePath": "/Users/lookme/nft/nft-contracts/contracts/token/NFT721.sol",
  "compiler": {
    "name": "solc",
    "version": "0.6.12+commit.27d51765.Emscripten.clang"
  },
  "schemaVersion": "3.3.4",
  "updatedAt": "2021-04-22T03:36:20.700Z",
  "networkType": "ethereum",
  "devdoc": {
    "details": "anyone can mint token.",
    "kind": "dev",
    "methods": {
      "approve(address,uint256)": {
        "details": "Approves another address to transfer the given token ID The zero address indicates there is no approved address. There can only be one approved address per token at a given time. Can only be called by the token owner or an approved operator.",
        "params": {
          "to": "address to be approved for the given token ID",
          "tokenId": "uint256 ID of the token to be approved"
        }
      },
      "balanceOf(address)": {
        "details": "Gets the balance of the specified address.",
        "params": {
          "owner": "address to query the balance of"
        },
        "returns": {
          "_0": "uint256 representing the amount owned by the passed address"
        }
      },
      "burn(uint256)": {
        "details": "Burns a specific ERC721 token.",
        "params": {
          "tokenId": "uint256 id of the ERC721 token to be burned."
        }
      },
      "getApproved(uint256)": {
        "details": "Gets the approved address for a token ID, or zero if no address set Reverts if the token ID does not exist.",
        "params": {
          "tokenId": "uint256 ID of the token to query the approval of"
        },
        "returns": {
          "_0": "address currently approved for the given token ID"
        }
      },
      "isApprovedForAll(address,address)": {
        "details": "Tells whether an operator is approved by a given owner.",
        "params": {
          "operator": "operator address which you want to query the approval of",
          "owner": "owner address which you want to query the approval of"
        },
        "returns": {
          "_0": "bool whether the given operator is approved by the given owner"
        }
      },
      "owner()": {
        "details": "Returns the address of the current owner."
      },
      "ownerOf(uint256)": {
        "details": "Gets the owner of the specified token ID.",
        "params": {
          "tokenId": "uint256 ID of the token to query the owner of"
        },
        "returns": {
          "_0": "address currently marked as the owner of the given token ID"
        }
      },
      "renounceOwnership()": {
        "details": "Leaves the contract without owner. It will not be possible to call `onlyOwner` functions anymore. Can only be called by the current owner. NOTE: Renouncing ownership will leave the contract without an owner, thereby removing any functionality that is only available to the owner."
      },
      "safeTransferFrom(address,address,uint256)": {
        "details": "Safely transfers the ownership of a given token ID to another address If the target address is a contract, it must implement {IERC721Receiver-onERC721Received}, which is called upon a safe transfer, and return the magic value `bytes4(keccak256(\"onERC721Received(address,address,uint256,bytes)\"))`; otherwise, the transfer is reverted. Requires the msg.sender to be the owner, approved, or operator",
        "params": {
          "from": "current owner of the token",
          "to": "address to receive the ownership of the given token ID",
          "tokenId": "uint256 ID of the token to be transferred"
        }
      },
      "safeTransferFrom(address,address,uint256,bytes)": {
        "details": "Safely transfers the ownership of a given token ID to another address If the target address is a contract, it must implement {IERC721Receiver-onERC721Received}, which is called upon a safe transfer, and return the magic value `bytes4(keccak256(\"onERC721Received(address,address,uint256,bytes)\"))`; otherwise, the transfer is reverted. Requires the _msgSender() to be the owner, approved, or operator",
        "params": {
          "_data": "bytes data to send along with a safe transfer check",
          "from": "current owner of the token",
          "to": "address to receive the ownership of the given token ID",
          "tokenId": "uint256 ID of the token to be transferred"
        }
      },
      "setApprovalForAll(address,bool)": {
        "details": "Sets or unsets the approval of a given operator An operator is allowed to transfer all tokens of the sender on their behalf.",
        "params": {
          "approved": "representing the status of the approval to be set",
          "to": "operator address to set the approval"
        }
      },
      "supportsInterface(bytes4)": {
        "details": "See {IERC165-supportsInterface}. Time complexity O(1), guaranteed to always use less than 30 000 gas."
      },
      "tokenByIndex(uint256)": {
        "details": "Gets the token ID at a given index of all the tokens in this contract Reverts if the index is greater or equal to the total number of tokens.",
        "params": {
          "index": "uint256 representing the index to be accessed of the tokens list"
        },
        "returns": {
          "_0": "uint256 token ID at the given index of the tokens list"
        }
      },
      "tokenOfOwnerByIndex(address,uint256)": {
        "details": "Gets the token ID at a given index of the tokens list of the requested owner.",
        "params": {
          "index": "uint256 representing the index to be accessed of the requested tokens list",
          "owner": "address owning the tokens list to be accessed"
        },
        "returns": {
          "_0": "uint256 token ID at the given index of the tokens list owned by the requested address"
        }
      },
      "tokenURI(uint256)": {
        "details": "Returns an URI for a given token ID. Throws if the token ID does not exist. May return an empty string.",
        "params": {
          "tokenId": "uint256 ID of the token to query"
        }
      },
      "totalSupply()": {
        "details": "Gets the total amount of tokens stored by the contract.",
        "returns": {
          "_0": "uint256 representing the total amount of tokens"
        }
      },
      "transferFrom(address,address,uint256)": {
        "details": "Transfers the ownership of a given token ID to another address. Usage of this method is discouraged, use {safeTransferFrom} whenever possible. Requires the msg.sender to be the owner, approved, or operator.",
        "params": {
          "from": "current owner of the token",
          "to": "address to receive the ownership of the given token ID",
          "tokenId": "uint256 ID of the token to be transferred"
        }
      },
      "transferOwnership(address)": {
        "details": "Transfers ownership of the contract to a new account (`newOwner`). Can only be called by the current owner."
      }
    },
    "title": "NFT721",
    "version": 1
  },
  "userdoc": {
    "kind": "user",
    "methods": {},
    "version": 1
  }
}